:060000000200AF02040340
:03000B0002040BE1
:0300130002009355
:03001B0002041BC1
:03002300020423B1
:03002B0002042BA1
:0300330002043391
:03003B0002043B81
:0300430002044371
:03004B0002044B61
:0300530002045351
:03005B0002045B41
:0300630002046331
:03006B0002046B21
:0300730002047311
:03007B0002047B01
:03008300020483F1
:03008B0002048BE1
:0A009300C0D030D105D0D00201DE4C
:05009D00D0D0020413A5
:030108000200A250
:0500A20012023A80FE8D
:0B010B00E5AE20E7FB75AB11E50A250F
:0A0116000AF5AD75AC0043AE010020
:06012000E5AE20E7FB2222
:0100A7000058
:0700A80043AE020002012932
:030126000200A82C
:0101290022B3
:07012A007A077BF88B0290BD
:07013100F7FFEAF07A077BFB
:07013800F890F800EAF090D6
:0C013F00F80174DFF090F80274AFF0904B
:0E014B00F803E4F0E0FA43020490F803EAF04F
:0C01590090F804E4F090F8057412F090A7
:08016500F8067442F07AFF7BFA
:06016D00F78BD57AFF7B41
:05017300F77B008AD4B7
:0B017800E5AE20E7FB75AB11E50A25A2
:0B0183000AFA743F5AF5AD43D6011292
:02018E00012648
:05019000E5D130E0FBA9
:08019500E5AE54C0600280F8E1
:04019D0053D1FE221A
:0901A100E509B50804758200228D
:0801AA00E5092400F582E434AC
:0701B200F0F583E0F50AAA55
:0801B900097B000ABA00010BEA
:0B01C100BAFF08BB07057509008002AB
:0201CC00050923
:0401CE007582012213
:0301D2008582C162
:0901D500E58630E1FB5386FD22B2
:0E01DE00C0E0C082C083C002C003C0D075D094
:0A01EC0000C28BE5082400F582E450
:0A01F60034F0F583E5C1F0AA087BA0
:06020000000ABA00010B28
:0B020600BAFF08BB0705750800800266
:020211000508DE
:0D021300D0D0D003D002D083D082D0E03212
:09022000900400E0FABAFF01228B
:0E022900C2AF759A0075B80075A800C2D10268
:030237000400229E
:03023A0053BEFBB5
:08023D00E5BE30E6FB75C6E9E1
:0C024500E5C630E6FB75C6A8750900751B
:0C0251000800AAF174FE5A4402F5F143C3
:0E025D00F30C7586C075C22275C50DC28BD21A
:07026B00AAD2D1D2AF7A0044
:03027200BA0800C7
:0E02750050138A030AEB9003B793F582C00280
:070283001201D2D00280E855
:06028A007AFF7BFF7C08F7
:0E029000C002C003C0041201A1E582D004D058
:0E029E0003D0027025EC60228A058B061ABA86
:0302AC00FF011B34
:0E02AF00ED4E70DD758242C002C003C0041225
:0B02BD0001D2D004D003D0021C80C886
:0602C800EC70031202209D
:0C02CE0053C9FCAAC974FB5A4408F5C9C6
:0E02DA001201A1E58260F9AAC9740F5A44A06E
:0C02E800F5C9AAC9740F5A4450F5C9AA00
:0602F4000ABA6502801D3C
:0802FA00AA0ABA6A030203A478
:07030200AA0ABA6C02806F29
:07030900AA0ABA7002801479
:07031000AA0ABA72C5801AA7
:0B0317001201A1E58260F912010B0247
:0203220003AA2C
:0B0324001201A1E58260F912012A021B
:02032F0003AA1F
:0C0331001201A1E58260F9AA0AEA2A255F
:04033D00E0FB7A0067
:09034100AC0A7D000CBC00010DAA
:0E034A00EC2C25E0FD7C00C3EA9CEB9D50529C
:0E035800EA2500F582EB3501F583E493F5828A
:0E036600C002C0031201D2D003D0020ABA00B6
:04037400CC0B80C965
:040378007A007B008C
:05037C0074FC2B402978
:0E038100C002C0031201A1E582D003D00260C9
:0A038F00F1EA2407F582EB34F8F5DB
:0B03990083E50AF00ABA00DB0B80D8F5
:0603A4001202200202DA41
:0903AA007582001201D20202DA90
:0803B7000D0A4343544C0D0AEA
:0600DE00E478FFF6D8FDF6
:0800BC007900E94400601B7AA1
:0500C400009003BF786D
:0300C9000075932C
:0A00CC0000E493F2A308B800020557
:0800D60093D9F4DAF27593FFEF
:0800E4007800E84400600A798D
:0300EC0000759309
:0600EF00F0E4F309D8FC67
:0800F5007807E8440C600C7967
:0B00FD000D90F000E4F0A3D8FCD9FA4D
:0300AF0075810A4E
:0A00B2001203B3E58260030200A20E
:0403B300758200222D
:00000001FF
