:1004E7007E007F007508007D0AED602DE508702904
:1004F700EE4F700F90F000C005120F8BD0057E886D
:100507007F131D1EBEFF011FC007C006C005120BCB
:10051700D0D005D006D00780D0ED600475820122C7
:100527007582011211A375820022020F5FC009E5CF
:1005370081F5092406F581AF090F7E007D408F8282
:100547008E838DF0121116E58270030207AEA8099B
:1005570008B6000302078AA809088607BF65028054
:100567001ABF6A0302076FBF6C03020689BF7002D6
:10057700804FBF720302060E0207AEE5092403FF90
:100587007E007D408F828E838DF0121116E582608A
:10059700EA90F0007404F090F00174FEF090F0021D
:1005A7007401F0E5092403F8741F5690F003F090E6
:1005B700F004E4F01204E7E58270030207AE0207D5
:1005C700A8E5092403FF7E007D408F828E838DF08E
:1005D700121116E58260EA90F0007404F090F001C1
:1005E70074FEF090F0027402F0E5092403F8741F1A
:1005F7005690F003F090F004E4F01204E7E58270FF
:10060700030207AE0207A8E5092403FF7E007D4029
:100617008F828E838DF0121116E58260EA7F00BF0C
:100627001000503390F0007404F090F00174FEF065
:1006370090F0027403F0E5092403F8741F5690F054
:1006470003F0740F5F90F004F0C0071204E7E5822F
:10065700D00760030F80C87E007F00EF54FC600363
:100667000207A8EE2450F582EF34F0F583E0F58217
:10067700C007C0061211A3D006D0070EBE00DC0FBC
:1006870080D97E007F00EF54FC7035E5092402FD18
:100697007C007B408D828C838BF0C007C0061211D3
:1006A70016E582D006D00760E2EE2450F582EF34DB
:1006B700F0F583A8090808E6F00EBE00C90F80C64A
:1006C700E4FEFFE5092404F87600E5092404F8B6FA
:1006D700100040030207A890F0007444F090F00166
:1006E70074FEF090F0027404F090F003E4F0E50972
:1006F7002404F8740F5690F004F08E038F04E50974
:100707002405F87605087600E5092405F8C3E6947C
:100717004508E694005035E5092405F8E62400FF6E
:1007270008E634F0FE8B028C050BBB00010CEA24B3
:1007370050F582ED34F0F583E0FD8F828E83F0E58E
:10074700092405F806B60002080680BC8B068C074C
:10075700C007C0061204E7E582D006D0076042E56D
:10076700092404F8060206D190F0007402F090F014
:100777000174FEF090F0027405F01204E7E5826060
:1007870026801E90F0007404F090F00174FEF09043
:10079700F002E4F090F003F090F004F01204E78028
:1007A700067582001211A3850981D009222222220F
:1007B700020F5FC009E581F5092404F581AE82AA1D
:1007C70083A3E0FDE4BDFD0104FD60228E828A83E0
:1007D700A3A3E0FC90F002E0FBECB50304740180F6
:1007E70001E4FC6009EC6006EC6003750801ED703C
:1007F7000302087B8E828A83A3A3E0FCBC03757483
:10080700042EFBE43AFCA80908E4F608F6A8090850
:10081700C3E6944008E69400506E8B828C83E0FF19
:10082700C003C004EF75F040A4FFADF0A80908EFBE
:1008370026FFED0836FDE5092403F8EF2450F6ED11
:1008470034F008F6A80908740526FBE40836FFEB20
:100857002EF582EF3AF583E0FFE5092403F8868257
:10086700088683EFF0A8090806B600020806D00438
:10087700D0038099ED60118E828A83A3A3E0FFBF26
:1008870010067582571211A390F9A8E02401F0A36E
:0A089700E03400F0850981D0092249
:0213F1000000FA
:1008A100AFBE74FB5FF5BEE5BE30E6FB75C6E9E59C
:1008B100C630E6FB75C6A8E5C620E6FB43BE0422AA
:1008C100222274FC55C94403F5C9AFC974FB5FF515
:1008D100C943C90880FEC0E0C082C083C0D0759CF6
:1008E100FF90F452E02401F0D0D0D083D082D0E048
:1008F1003290F450E4F0A3F090F452F00209007544
:100901009D0DAF9E74FC5F4404F59E439E10D2BAC8
:100911002290F452E0FE7F00AC9C7D0074FFC39CEA
:10092100FCE49DFDEC4207ED420690F450E0FCA38F
:10093100E0FDEC2FF582ED3EF58322C009858109AA
:10094100C082C083C0F0C0E0E5812404F5817A0053
:10095100E4FBFEFFE50924FAF8A90909E6C397C0FB
:10096100E008E60997C0E008E60997C0E008E60953
:1009710097C0E0E5092408F8D0E0F618D0E0F618B1
:10098100D0E0F618D0E0F6E5092405F87DFA8D04EB
:100991001DEC6016E5092405F8E62AFA08E63BFB9A
:1009A10008E63EFE08E63FFF80E48B828E838509E0
:1009B10081D00922AE82AF837D008D048F058E0721
:1009C1007E0074FAC0E0E4C0E0C0E0C0E08E828F37
:1009D100838DF0EC12126CAC82AD83E58124FCF5C1
:1009E10081C005C004120912AE82AF83D004D005C4
:1009F100C007C006C005C004120912AA82AB83D089
:100A010004D005D006D007EAC39EFAEB9FFBC3ECE6
:060A11009AED9B50DB2270
:0604000002048B020D86D0
:01040B0032BE
:030413000210498B
:01041B0032AE
:0104230032A6
:01042B00329E
:010433003296
:01043B00328E
:010443003286
:01044B00327E
:030453000208D7C5
:01045B00326E
:010463003266
:03046B00020FCCB1
:010473003256
:03047B00020FC9A4
:03048300020E79ED
:0304E40002048689
:05048600120BA980FE2D
:100A1700741855BEFFFEBE0002800ABF0802800E92
:100A2700BF101D80129013D175F0800211DE901354
:100A3700D575F0800211DE9013D975F0800211DEB2
:100A4700221208A11208C11211789013DD75F080E7
:100A57001211DE120A171208F2120BB1D2AF120CE2
:100A67003B120FE4020531C009E581F5092404F5BD
:100A7700811208C2120BD0120BC9E5826003020B68
:100A8700A3120534120912AE82AF838E038F02A818
:100A97000908A60308A60208760008760090F9AAB6
:100AA700E0FEA3E0FF8E048F057E007F00C003C039
:100AB70002A80908E6C0E008E6C0E008E6C0E008CA
:100AC700E6C0E08C828D838EF0EF12093CAE82AFD8
:100AD70083E58124FCF581D002D003C374E89E74BA
:100AE700039F501390F9AAEBF0A3EAF0C003C002EA
:100AF7001207B4D002D00390F9ACE0FEA3E0FF7D6B
:100B0700007C00C003C002A80908E6C0E008E6C0F0
:100B1700E008E6C0E008E6C0E08E828F838DF0EC47
:100B270012093CAE82AF83E58124FCF581D002D067
:100B370003C374649EE49F501690F9ACEBF0A3EAEC
:100B4700F0C003C0021207B5120FBFD002D0039046
:100B5700F9AEE0FEA3E0FF7D007C00C003C002A861
:100B67000908E6C0E008E6C0E008E6C0E008E6C01D
:100B7700E08E828F838DF0EC12093CAE82AF83E565
:100B87008124FCF581D002D003C3740A9EE49F50F0
:100B97000B90F9AEEBF0A3EAF01207B6850981D006
:0A0BA7000922120A48120A6E80FBB0
:1013D100424F440045585400574454000D0A63637A
:0C13E100726C206578706F727465640097
:0613F300000000000000F4
:100BB10022AF8290F9B2E4F090F9B0F090F453EFE3
:100BC100F0EF70030207B72290F9B2E0F5822290AC
:100BD100F453E0FF6055BF01028005BF024D803133
:100BE10090F9B2E0FF601D90DF3AE0F582120FE369
:100BF10090DF39E0FF30E70690F4551207BA7582AD
:100C010000120BB290F9B0E0FF6020758200020B78
:100C1100B290F9B2E0FF6006758200120BB290F952
:100C2100B0E0FF6006758200020BB222AF8290DF56
:100C31003BE0FEB507F87582012290DF0074D3F026
:100C410090DF017491F090DF0274FFF090DF037484
:100C510004F090DF047445F090DF05E4F090DF06C6
:100C6100F090DF07740CF090DF08E4F090DF097476
:100C710024F090DF0A742DF090DF0B74DDF090DF2B
:100C81000C741DF090DF0D7455F090DF0E7413F0AD
:100C910090DF0F7422F090DF1074F8F090DF117480
:100CA10062F090DF127407F090DF137430F090DF80
:100CB100147418F090DF15741DF090DF16741CF099
:100CC10090DF1774C7F090DF18E4F090DF1974B06B
:100CD100F090DF1A74B6F090DF1B7410F090DF1CF7
:100CE10074EAF090DF1D742AF090DF1EE4F090DFCB
:100CF1001F741FF090DF237488F090DF247431F0AB
:100D010090DF257409F090DF27E4F090DF28F09060
:100D1100DF29F090DF2AF090DF2BE4F090DF2CF058
:100D210090DF2DF090DF2E7450F090DF2FE4F090E3
:100D3100DF30F090DF31F090DF38F090DF39E4F010
:100D410090DF3A7480F090DF3B7401F090DF3CE477
:100D5100F090DF3D7494F090DF05E4F075E9004315
:100D61009A01D2A84391F175E104758201120C2D0B
:100D7100758200020BB275E104758201120C2D75AA
:100D81008200020BB2C0E0C0F0C082C083C007C0C5
:100D910006C005C004C003C0D075D000AFD990DF34
:100DA1003BE0FEBE134690F455E0FE7D000EBE0012
:100DB100010D90F9B3E0FC7B00C3EC9EEB64808DE8
:100DC100F063F08095F0501C90F9B3E0FE90F9B318
:100DD100E02401F0EE2455F582E434F4F583E0F5E6
:100DE100D9020E6490F9B07401F0807790DF3BE096
:100DF100FEBE0D6F90F9B3E0FE602290F455E0FE67
:100E01007D000EBE00010D90F9B3E0FC7B00C3EC48
:100E11009EEB64808DF063F08095F0502490F9B3DF
:100E2100E0FEBE5000501A90F9B3E0FE90F9B3E035
:100E31002401F0EE2455F582E434F4F583EFF080DB
:100E41002290F455E0FF7E000FBF00010E90F9B330
:100E5100E0FD7C00B50706ECB50602800690F9B00E
:100E61007401F0D0D0D003D004D005D006D007D083
:100E710083D082D0F0D0E032C0E0C082C083C0070E
:100E8100C006C005C004C0D075D000AF9B74FC5F24
:100E9100F59BE5E930E43090F455E0FF7E000FBFAB
:100EA10000010E90F9B3E0FD7C00B5070CECB5062E
:100EB1000890F9B27401F0800690F9B07401F075F0
:100EC100E10490F9B3E4F0E5E920E70AE5E920E679
:100ED10005E5E930E50E75E10490F9B3E4F090F928
:100EE100B07401F0E5E930E00590F9B3E4F075E99B
:100EF10000D0D0D004D005D006D007D083D082D086
:100F0100E03290F453E0FF6009BF012F7402B5E1B4
:100F1100012275E104758201120C2D758202120BFA
:100F2100B290F9B3E4F090F9B1F090F9B2F090F920
:100F3100B0F075E103758213020C2D2290F453E099
:100F4100FFBF021690F9B2E0FF700A90F9B0E0FF1E
:100F51007003FF80027F018F82227582012290F44B
:100F6100537401F075E104758201120C2D90F9B0F2
:100F7100E4F090F9B3F090F9B17401F090F9B2E4B2
:100F8100F075E10275820D020C2DAE82AF83E0FD9A
:100F91007C000DBD00010C7B00C005C004C006C073
:100FA10007C00390F45575F0001212D9E58124FBB6
:050FB100F581020F03B1
:0413F90000000000F0
:100FB600E58290F9B4F0020FBF90F9B4E090F9B46D
:030FC60023F022F3
:0113FD0000EF
:100FC900C2EB32C2C532E5B4540C600280F885BC6C
:100FD90082743055B44407F5B4222275BC0475BC3B
:100FE90004120FCF120FCF020FCFC009858109ADAF
:100FF90082AE83AFF0E50924FDF886048C031CEB6F
:101009006026C007C006C005C004120FCFAB82D04E
:1010190004D005D006D0078D828E838FF0EB121293
:1010290053A3AD82AE8380D4D00922AF82BF0A0018
:1010390050088F0674302EF5822274372FF58222DC
:10104900C020C0E0C0F0C082C083C007C006C00590
:10105900C004C003C002C001C000C0D075D000C226
:101069008BAFC190F9A6E0FDA3E0FE74FE2DF582D9
:1010790074043EF583C00774FFC0E07404C0E01235
:101089001388AD82AE8315811581D00790F9A4E04C
:10109900FBA3E0FCEBB50506ECB506028038EB24B2
:1010A900A5F582EC34F4F583EFF090F9A4E0FDA303
:1010B900E0FE8D828E83A3C00774FFC0E07404C074
:1010C900E0121388AD82AE8315811581D00790F99E
:1010D900A4EDF0A3EEF0BF2B1190F9B5E01490F94F
:1010E900B5F0FF700B1208C3800690F9B57403F0D0
:1010F900D0D0D000D001D002D003D004D005D00682
:10110900D007D083D082D0F0D0E0D02032AD82AEEB
:1011190083AFF090F9A4E0FBA3E0FC90F9A6E0F915
:10112900A3E0FAEBB50108ECB5020475820022E9E7
:1011390024A5F582EA34F4F583E08D828E838FF05D
:1011490012125390F9A6E0FEA3E0FF8E828F83A3CB
:1011590074FFC0E07404C0E0121388AE82AF831537
:1011690081158190F9A6EEF0A3EFF0758201229026
:10117900F9A6E4F0A3F090F9A4F0A3E4F0758600D1
:1011890075C23B75C50DAFF174FE5F4402F5F143BD
:10119900F30C7586C0C28BD2AA228582C1E586303E
:1011A900E1FBAF8674FD5FF58622AD82AE83AFF0B9
:1011B9008D828E838FF012136CFC60180DBD0001B7
:1011C9000E8C82C007C006C0051211A3D005D00637
:1011D900D00780DC221211B39013ED75F080021153
:1011E900B3AF8274F05FC4540FF582C00712103494
:1011F9001211A3D007740F5FF5821210340211A3E4
:10120900C009858109AD82AE83AFF0E50924FDF8F7
:1012190086048C031CEB60268D828E838FF012135B
:101229006CFBA3AD82AE838B82C007C006C005C02C
:10123900041211EAD004D005D006D00780D4901347
:0A124900F075F0801211DED00922CA
:0413ED000D0A0000E5
:0113FE0003EB
:0604BA00E478FFF6D8FD16
:10049800790EE94400601B7A019013F178A87593EE
:1004A800F9E493F2A308B800020593D9F4DAF275D7
:0204B80093FFB0
:1012530020F71030F6118883A88220F507F6A883BB
:0912630075830022F280F7F022ED
:1004C0007800E84400600A79007593F0E4F309D8F5
:1004D000FC78A8E84409600C790A90F000E4F0A3E5
:0404E000D8FCD9FA71
:10126C00FBE58124FBF8E6F9087A20E4FCFDFEFF9F
:10127C00E5822582F582E58333F583E5F033F5F0DD
:10128C00EB33FB4017DAE98042E5822582F582E5F3
:10129C008333F583E5F033F5F0EB33FBEC33FCED06
:1012AC0033FDEE33FEEF33FFEC99ED96EE0896EF3F
:1012BC00089618184013EC99FCED96FDEE0896FE76
:1012CC00EF0896FF1818438201DABEEB22C009E53D
:1012DC0081F5092408F581AD82AE83AFF0A8090829
:1012EC00A60508A60608A607E50924FBF8E50924C7
:1012FC0004F9E6F70809E6F70809E6F7E50924F921
:10130C00F8E5092407F9E6F70809E6F7E5092407E3
:10131C00F88603088604E5092407F816B6FF0208C8
:10132C0016EB4C602AE5092404F8868208868308AB
:10133C0086F012136CFCA31818A68208A6838D8263
:10134C008E838FF0EC121253A3AD82AE8380BDA8B6
:10135C00090886820886830886F0850981D00922CF
:0D048B007581201213CDE582600302048606
:10136C0020F71430F6148883A88220F507E6A883AA
:10137C0075830022E280F7E49322E022E58124FECB
:10138C00F88601188600E84960367A01E825E0F80D
:10139C00E933400EF9E58298E5839940030A80EC25
:1013AC00C3E913F9E813F8C3E58298F5F0E58399DE
:1013BC004005F58385F082C3E913F9E813F8DAE701
:0513CC002275820022E1
:00000001FF
