:0900000002009830D1080201ABA6
:06000B0002040B020403D5
:20001300020413D391FF054502041BFE000C00240204232DDD1D551302042B22F86207301C
:15003300020433181D1CC70002043BB0B610EA2A020443001F34
:03004B0002044B61
:0300530002045351
:03005B0002045B41
:0300630002046331
:03006B0002046B21
:0300730002047311
:03007B0002047B01
:03008300020483F1
:03008B0002048BE1
:0300F10002008E7C
:02008E0051AF70
:1E00F400E5AE20E7FB75AB1190F00BE0FF25E0F5AD75AC0043AE0100E5AE20E7FB224D
:080090000043AE02000201155D
:20011200020091227E087FF18F0690F000EEF07E087FF190F001EEF090F00274DFF090F095
:200132000374AFF090F004E4F090F004E04404F090F005E4F090F0067412F090F007744211
:20015200F07E007FF08F068ED57E007FF07F008ED4E5AE20E7FB75AB1190F00BE025E0FFB5
:20017200743F5FF5AD43D6013112E5D130E0FBE5AE54C0600280F8AFD174FE5FF5D1229051
:200192000400E0FFBFFF0122C2AF759A0075B80075A800C2D102040022C0E0C082C083C01F
:2001B20007C0D075D00090DF3BE0FFBF0D028005BF13228010E5082408F582E434F0F583E1
:2001D200E5D9F0800EE5082408F582E434F0F583E0F5D90508D0D0D007D083D082D0E03208
:2001F20075CBDCC2D830D8FD75CB0090F00974FDF075080075E10390DF3BE0FFBF13F8904F
:20021200DF3BE0FFBF01F875E90022E5E930E41A75E90090DF39E0FF30E70C90DF3BE0FF0E
:20023200BF01F87582012275080090DF3BE0FFBF0D02800E75080075E10290DF3BE0FFBF5B
:200252000DF8758200227F007E167C007DDFBE480050228E027B008A828B83E0FA8C828D71
:2002720083F00F0CBC00010DEF24FB50057F000E0E0E0E80D990DF247431F090DF25740968
:20029200F090DF2E7450F075E900750800C289D2A875E10490DF3BE0FFBF01F822AFBE74CD
:2002B200FB5FF5BEE5BE30E6FB75C6E9E5C630E6FB75C6A8E5C620E6FB43BE045158D2D1AB
:2002D200D2AF7F147DFF7EFFEF24FD503EC007C006C005511DE582D005D006D00760027FD7
:2002F200008D038E041DBDFF011EEB4C70DA90F0087402F090F00A7410F0C007C006C00513
:2003120031F2D005D006D0071F80BDEF6002319175C908511DE58260FA75C9A875C9589036
:20033200F00AE0FF24FA40EBEF2F90034073614C614E6152615661A661E161E311F461E389
:20035200311661E390F0087444F090F00BE025E025E0FE7F0090F00CE0FDE4C3CD13CD130E
:20037200A2E0CD13CD13CDFCED2FFFEC3EFE7D05BD4500501BED2408FBE434F0FC8F828E77
:2003920083E0FA8B828C83F00FBF00010E0D80E031F2612590F00CE0FFE4C3CF13CF13A277
:2003B200E0CF13CF13CFFE7D05BD45005023EF2408FBEE34F1FCED2408F582E434F0F5838E
:1B03D200E0FA8B828C83F00FBF00010E0D80DA319190F0087404F031F261258B
:0600C700E478FFF6D8FD0D
:2000A5007900E94400601B7A009003F17800759300E493F2A308B800020593D9F4DAF27528
:0200C50093FFA7
:2000CD007800E84400600A79007593F0E4F309D8FC7808E84405600C790690F000E4F0A34D
:0400ED00D8FCD9FA68
:0D0098007581081203EDE582600302008E01
:0403ED0075820022F3
:00000001FF
